:020000040800F2
:100000005008002031020008932600081924000837
:1000100091260008A1070008012D0008000000003B
:10002000000000000000000000000000972600080B
:100030002D080008000000009526000899260008F9
:100040004B0200084B0200084B0200084B0200085C
:100050004B0200084B0200084B0200084B0200084C
:100060004B0200084B0200084B0200084B0200083C
:100070004B0200084B0200084B0200084B0200082C
:10008000A50700084B0200085D0600084B020008A7
:100090004B0200084B0200084B0200084B0200080C
:1000A0004B0200084B0200084B0200084B020008FC
:1000B0003D2700084B0200084B0200084B020008D5
:1000C0004B0200084B0200084B0200084B020008DC
:1000D0004B0200084B020008F52C00084B020008F8
:1000E0004B0200084B0200084B0200084B020008BC
:1000F0004B0200084B0200084B0200084B020008AC
:100100004B0200084B0200084B0200084B0200089B
:100110004B0200084B0200084B0200084B0200088B
:100120004B0200084B0200084B0200084B0200087B
:100130004B0200084B0200084B0200084B0200086B
:100140004B0200084B0200084B0200084B0200085B
:100150004B0200084B0200084B0200084B0200084B
:100160004B0200084B0200084B0200084B0200083B
:100170004B0200084B0200084B0200080000000080
:100180004B0200084B02000800F002F800F041F8B2
:100190000AA090E8000C82448344AAF10107DA45E2
:1001A00001D100F036F8AFF2090EBAE80F0013F0F3
:1001B000010F18BFFB1A43F001031847802C000001
:1001C000A02C0000103A24BF78C878C1FAD8520792
:1001D00024BF30C830C144BF04680C6070470000C1
:1001E0000023002400250026103A28BF78C1FBD840
:1001F000520728BF30C148BF0B607047752900F017
:10020000F780002070471FB502F002FE1FBD10B539
:1002100010BD00F0E8F91146FFF7F5FF02F082FD8E
:1002200000F006FA03B4FFF7F2FF03BC00F00EFA89
:100230000948804709480047FEE7FEE7FEE7FEE77A
:10024000FEE7FEE7FEE7FEE7FEE7FEE704480549B6
:10025000054A064B704700002D2700088901000859
:1002600050020020500800205004002050040020BC
:1002700053EA020C00F069802DE9F04B4FF00006C4
:10028000002B1FBFB3FA83F503FA05F424FA05F631
:100290005E4012BF1643B2FA82F502FA05F4C5F1C8
:1002A00020051EBF22FA05FC44EA0C04203556EA5C
:1002B000044C4FEA144418BF641C4FF000084FF080
:1002C0000009904271EB030C39D3002919BFB1FA30
:1002D00081F701FA07F6B0FA80F700FA07F6C7F1DE
:1002E00020071EBF20FA07FC46EA0C062037B6FBA3
:1002F000F4FCA7EB0507103F07F01F0BCBF120061E
:100300000CFA0BFB2CFA06F644BFB3460026202F4E
:10031000A4BF5E464FF0000B5BEA060C08BF4FF02F
:10032000010B19EB0B09ABFB027C48EB0608C01B69
:1003300006FB02CC0BFB03CC71EB0C01C1E70B46B7
:10034000024641464846BDE8F08B13B54FF0000029
:100350004FF00001AFF30080BDE81C407047000083
:100360000FB41CB5074B06AA7B446946009005985C
:1003700000F021F90020694600F030F91CBC5DF85E
:1003800014FB0000710200002DE9F0410E46044606
:10039000002020622046E168884730B3252805D038
:1003A000D4E901219047206A401CF2E7E168204629
:1003B00000278847050018D0A5F14100192802D868
:1003C00020354FF400673246294620462760FFF764
:1003D00015FF40B1012804D0F61D26F007060836A7
:1003E000D8E7361DD6E72846DAE7206ABDE8F0816F
:1003F0002DE9F0410646002410687529314616A5FE
:1004000010D0AFF30080002802DA404213A507E0C5
:1004100031688A0701D512A502E0490704D511A564
:10042000012401E0AFF3008000210A2206F1240735
:1004300009E0B0FBF2FCB0FBF2F302FB1C00303031
:1004400078541846491C0028F3D123462A463046E2
:10045000BDE8F04100F051B8000000002D000000A0
:100460002B0000002000000010B5431C02E010F833
:10047000011B71B18107FAD14FF0013202C88C1A09
:100480008C4314EAC211F9D0C01A0A0603D0C01E68
:1004900010BDC01A10BD0A0401D0801E10BD090293
:1004A000FCD0401E10BD4FF0000200B5134694462C
:1004B0009646203922BFA0E80C50A0E80C50B1F1BC
:1004C0002001BFF4F7AF090728BFA0E80C5048BFD0
:1004D0000CC05DF804EB890028BF40F8042B08BF6E
:1004E000704748BF20F8022B11F0804F18BF00F86A
:1004F000012B70477047704770472DE9F0470D4654
:1005000099469246044600F124080168880604D5FD
:10051000E06921F01001216000E00120A84201DD26
:10052000471B00E00027A1697A1902EB0900081AAD
:10053000A0612078C00602D42046AFF300800026D8
:1005400008E0D4E901211AF806009047206A401C0F
:10055000761C20624E45F4DB2078C0060AD5204682
:10056000AFF3008006E0D4E9012130209047206AF3
:10057000401C2062381EA7F10107F4DC07E0D4E933
:10058000012118F805009047206A401C2062281EAF
:10059000A5F10105F3DC2046AFF3008020780006CA
:1005A00002D50220BDE8F0870120FBE701694A1C63
:1005B00002610878704700B58FB0CDE901310021A4
:1005C000059105497944CDE9031011466846FFF7C6
:1005D000DBFE0FB000BD0000E5FFFFFF0A6802F878
:1005E000010B0A607047754600F02CF8AE46050016
:1005F0006946534620F00700854618B020B5FFF73E
:1006000025FEBDE820404FF000064FF000074FF0F8
:1006100000084FF0000B21F00701AC46ACE8C00920
:10062000ACE8C009ACE8C009ACE8C0098D46704729
:1006300010B50446AFF300802046BDE81040FFF738
:10064000F1BD000000487047EC010020014918206E
:10065000ABBEFEE7260002007047000010B504485C
:1006600000F093F9BDE81040024800F08EB9000098
:100670001800002060000020464910B54A6822F4A6
:1006800040324A604A6843681A434A6001684A68CF
:1006900022F480724A6001684A68036942EA0322D0
:1006A0004A6001684A6822F040724A6001684A68FC
:1006B00083681A434A6001688A6822F400628A608B
:1006C00001688A68C3681A438A60816A6FF0706241
:1006D000D14201688A6822F070628A6001688A6883
:1006E0000CD0836A1A438A6001688A6822F04052FB
:1006F0008A6001688A68C36A1A4301E022F04052A6
:100700008A6001688A6822F002028A6001688A6849
:10071000037E42EA43028A6090F8201000290168B3
:100720004A680FD042F400624A6001684A6822F4C5
:1007300060424A6001684A68174C436A04EB4333DD
:100740001A4301E022F400624A600168CA6A22F496
:100750007002CA620168CA6A838B104C04EB0353AF
:100760001A43CA6201688A6822F400728A600168CA
:100770008A6890F8303042EA43228A6001688A68C9
:1007800022F480628A6001688A68406942EA8020B7
:10079000886010BD0023014000E0FFFF0000F0FF73
:1007A000FEE70000014800F0EBBA00008C010020D9
:1007B00001681823CAB2103AB2FBF3F2054B6FF38B
:1007C0000901032A9B5CC36500D9091D81650846A0
:1007D000704700001A2E000810B5014600208B69F2
:1007E0008A6A4FF0C07453B1B3F5005F15D072B18F
:1007F000012A0CD0022A0AD0032A09D104E01AB136
:10080000012A06D0022A03D1C96AC90100D50120F4
:1008100010BDC96AA142FAD010BD002AF7D0012A42
:10082000F2D0022AF3D0032AF3D010BD704772B67B
:10083000FEE7704778B50024009490F83C20012A28
:1008400019D0012280F83C200A6807230568092A8C
:1008500013D9EE680A3A02EB420293409E43EE60DF
:100860000B788A680A3B03EB43039A400368DD6810
:100870002A43DA6010E0022078BD2E6902EB4202C2
:1008800093409E432E610B788A6803EB43039A40A2
:1008900003681D692A431A614A681F23072A13D275
:1008A00005686E6B521E02EB820293409E436E639C
:1008B0000B790A885B1E92B203EB83039A400368AC
:1008C0005D6B2A435A6327E005680D2A12D22E6B0E
:1008D000D21F02EB820293409E432E630B790A885B
:1008E000DB1F92B203EB83039A4003681D6B2A431C
:1008F0001A6311E0EE6A0D3A02EB820293409E43C6
:10090000EE620B790A880D3B92B203EB83039A40A7
:100910000368DD6A2A43DA62164B0568144A9D4271
:1009200006D10D68122D03D1556845F48005556038
:1009300005689D4218D10B68102B01D0112B13D1E3
:10094000536843F400035360096810290CD10A4925
:100950000A4A0968B1FBF2F101EB8101490000E0AC
:10096000491E00910029FBD180F83C40002078BD51
:1009700000230140002001401400002040420F00ED
:10098000704770470068C06C704770B504460068D7
:1009900001684268C1F34001C2F3401251B34AB347
:1009A000216CC90603D4216C41F400712164816873
:1009B00011F0405F17D1217EA9B9C16A11F4700FFF
:1009C00002D0816849050ED4416821F020014160C0
:1009D000206C20F480702064206CC00403D4206C50
:1009E00040F0010020642046FFF7CAFF21686FF045
:1009F00012000860206801684268C1F38001C2F3F8
:100A0000C01289B382B3216CC90603D4216C41F4AE
:100A100000512164816811F4401F1ED1816B11F4D3
:100A2000401F02D08168490517D44168490514D494
:100A3000816811F0405F10D1217E71B9416821F0C9
:100A400080014160206C20F480502064206CC0053F
:100A500003D4206C40F0010020642046FFF7E9FE3B
:100A600021686FF00C00086020680168426811F08E
:100A7000010FC2F380120ED06AB10068C0070AD01D
:100A8000206C40F480302064204600F046F8216855
:100A90006FF001000860206801684268C1F34011EE
:100AA000C2F3806200290DD0002A0BD0616C41F0A6
:100AB000020161646FF0200505602046FFF761FFC9
:100AC0002068056070BD70B504004FF0000503D0CC
:100AD000206C002610B107E0012070BD204600F018
:100AE0001DF8666484F83C60206CC00610D4206C4D
:100AF00020F4885040F0020020642046FFF7BCFD3F
:100B00006664206C20F0020040F00100206400E0E8
:100B1000012584F83C60284670BD704770B586B0EA
:100B2000044614216846FFF7BEFC21491F4E256884
:100B300000231F4A143903241E48B54211D11568F9
:100B400045F480751560126802F4807205920A6897
:100B500042F001020A60096801F0010105910121DA
:100B600013E0154EB5421ED1156845F400751560A9
:100B7000126802F4007205920A6842F001020A60EB
:100B8000096801F0010105910221CDE900140293E9
:100B9000694600F041FA00221146122000F0A8FB3D
:100BA000122000F097FB06B070BD0000002001404D
:100BB00044380240000002400021014018B50021E5
:100BC000009190F83C20012A07D0012280F83C20B7
:100BD00002689368DB0702D011E0022018BD936819
:100BE00043F001039360314A314B1268B2FBF3F2D8
:100BF00002EB420200E0521E0092002AFBD1026882
:100C00009368DB0747D0036C40F20164A34343F4CD
:100C10008073036453685B0505D5036C23F40053AC
:100C200043F480530364036CDB0404D5436C23F06A
:100C30000603436400E0416480F83C101D4B6FF0F4
:100C40002201116001684A681B4C22434A605968BE
:100C50000068CA06194906D0884224D1816811F07B
:100C6000405F13D01FE08842F8D0154A904203D16C
:100C7000D1F80423D206F1D0124A904213D1D1F810
:100C8000041301F01F011029E8D30CE0816841F042
:100C90008041816007E0016C41F010010164416C0A
:100CA00041F001014164002018BD00001400002043
:100CB00040420F00002301402000000400200140BA
:100CC00000210140002201402DE9F0410446876DDA
:100CD00000F0A0FA064694F835000025022806D058
:100CE0008020606584F834500120BDE8F0812068E0
:100CF000016821F0160101602068416921F080013E
:100D00004161206C08B9A06C20B12068016821F015
:100D1000080101602068016821F0010101600CE018
:100D200000F078FA801B052807D920206065032091
:100D300084F8350084F83450D7E720680068C0078D
:100D4000EED194F85C103F208840B860012084F810
:100D5000350084F834500020C7E790F83510022998
:100D600003D08021416501207047052180F83510AE
:100D70000068016821F00101016000207047000057
:100D80002DE9F84304464FF00009CDF80090634880
:100D90004FF41651A56D0068B0FBF1F72E6894F87A
:100DA0005C10082000FA01F131420FD021680A6876
:100DB00052070BD50A6822F004020A6094F85C100E
:100DC0008840A860606D40F00100606594F85C1098
:100DD0004FF0010808FA01F0304208D02168496953
:100DE000090604D5A860606D40F00200606594F8C3
:100DF0005C1004208840304208D0216809688907C7
:100E000004D5A860606D40F00400606594F85C1043
:100E100010208840304218D021680968090714D58D
:100E2000A86020680168490304D50068000308D55C
:100E3000A16C07E00168C90503D4016821F008012D
:100E40000160216C09B12046884794F85C1020208D
:100E50008840304231D021680968C9062DD5A86084
:100E600094F8350005282068016806D0490347D565
:100E7000006800031DD4616C1CE021F016010160C4
:100E80002068416921F080014161206C08B9A06CA3
:100E900020B12068016821F00801016094F85C101D
:100EA0003F208840A86084F8358084F83490216D14
:100EB0001FE0E16B09B120468847606D00282BD008
:100EC000606DC00714D0052084F8350020680168E3
:100ED00021F0010101600098401C0090B84203D845
:100EE00020680068C007F6D184F8358084F8349013
:100EF000E16C002910D001B02046BDE8F04308475E
:100F00000168C905D5D4016821F01001016084F899
:100F1000358084F83490CCE7BDE8F88314000020D5
:100F20002DE9F041044600F075F906465CB1022057
:100F300084F83500002584F834502068016821F0D9
:100F4000010101600DE00120BDE8F08100F062F9CF
:100F5000801B052805D920206065032084F8350012
:100F6000F2E720680068C007F0D1226811682048C5
:100F70000140D4E901031843D4E90336334318434D
:100F800063691843A3691843E3691843236A184344
:100F90000843616A042903D1D4E90B1319430843B8
:100FA000106020684069666A20F0070130460E43F1
:100FB000012704280CD1A06A0643E06A40B120460C
:100FC000FFF70AFC20B14020606584F83570BAE76D
:100FD000206846612046FFF7EBFB94F85C203F2138
:100FE00091408160656584F835700020ACE70000B1
:100FF0003F8010F070B5044600F00CF90546601C07
:1010000002D004480078044400F004F9401BA042D8
:10101000FAD370BD080000202DE9F84FDFF8BCA11D
:10102000002201250AF1040B03264FF00F090BF1F2
:10103000040E00BF0B6805FA02F42340A34270D1EE
:101040000F7907F00307012F01D0022F16D187680F
:101050004FEA420806FA08FC27EA0C07D1F80CC050
:101060000CFA08FC4CEA070CC0F808C04768A74314
:101070000C79C4F3001494403C4344600C79E4437D
:10108000A4070AD0C4684FEA420C06FA0CF7BC4326
:101090008F6807FA0CF72743C7600C7904F0030444
:1010A000022C12D1D40800EB840CDCF82040570746
:1010B000FF0E09FA07F824EA0804D1F8108008FAAC
:1010C00007F848EA0408CCF8208004684FEA420C8C
:1010D00006FA0CF7BC430F7907F0030707FA0CF781
:1010E000274307604C6814F4403F70D03C4C27689D
:1010F00047F480472760246822F0030704F4804403
:101100000094384C07EB040CDCF8084897074FEACA
:10111000177809FA08F7BC43334FB84202D10027C9
:1011200024E054E0314FB84201D101271EE0304F96
:10113000B84201D1022719E02E4FB84201D103274E
:1011400014E02D4FB84201D104270FE02B4FB842D5
:1011500001D105270AE02A4FB84201D1062705E050
:10116000284FB84201D1072700E0082707FA08F7FF
:101170002743CCF80878DAF800405746D1F804C085
:101180009C435FEACC3C00D51C433C60DBF800404C
:101190005F46D1F804C09C435FEA8C3C00D51C43F9
:1011A0003C60DEF800407746D1F804C09C435FEA1B
:1011B000CC2C00D51C433C60084F0C373C68D1F860
:1011C00004C09C435FEA8C2C00D51C433C60521C3D
:1011D000102AFFF42FAFBDE8F88F0000003C01405B
:1011E0004438024000300140000002400004024048
:1011F00000080240000C02400010024000140240AF
:1012000000180240001C02400AB1816170470904C5
:10121000FBE70000014880687047000008000020DC
:1012200002488168027811448160704708000020FC
:101230000B4810B5016841F400710160016841F488
:1012400080610160016841F480710160032000F059
:101250006FF80F2000F006F800F024F8002010BD11
:10126000003C024070B50D4D04464FF47A71287869
:10127000B1FBF0F00A490968B1FBF0F000F00CFB9B
:1012800048B9102C07D200222146501E00F030F839
:1012900000206C6070BD012070BD000008000020BF
:1012A000140000200A4808B5016841F4804101603B
:1012B000006800F4804000900548001F016841F07C
:1012C00080510160006800F08050009008BD00006F
:1012D00044380240002809DB00F01F020121914040
:1012E0004009800000F1E020C0F8001170470000C4
:1012F000F0B40E4B1B680C46C3F30223C3F1070581
:10130000042D00D90425191D072901D2002300E06E
:10131000DB1E012606FA05F1491E214099409E4038
:10132000761E16403143F0BC01F0EBBC0CED00E042
:10133000064900F0070208684FF6FF03184040EA2C
:101340000220034A10430860704700000CED00E0E3
:101350000000FA052DE9F0470E46050065D0DFF8DC
:101360001481D8F80000F7B200F00700B04207D2AD
:1013700088F80070D8F8000000F00700B04254D19F
:1013800028683D4C810712D5400703D5206840F4FA
:10139000E05020602878000703D5206840F46040C2
:1013A00020602068A96820F0F000084320602878B9
:1013B000C0072DD0304968680839012812D00228AA
:1013C00013D0032811D00968890700292DDA216874
:1013D00021F0030101432160FFF71CFF814641F228
:1013E000883A0EE009688903EFE709688901ECE7AC
:1013F000FFF710FFA0EB0901514502D90320BDE81A
:10140000F0872068696800F00C00B0EB810FEFD125
:10141000D8F80010404601F00701B14207D9077023
:10142000006800F00700B04201D00120E7E728780B
:10143000400705D52068E96820F4E05008432060A3
:101440002878000706D52068296920F4604040EA22
:10145000C100206000F038F82168084AC1F3031188
:10146000515CC8400649086006480068FFF7FAFE6C
:101470000020C4E7003C024008380240222E000849
:10148000140000200C000020044805490068096889
:10149000044AC1F38221515CC84070471400002007
:1014A00008380240322E00080448054900680968DF
:1014B000044AC1F34231515CC84070471400002017
:1014C00008380240322E0008154810B5006810F0A8
:1014D0000C02144813D01449042A0FD0082A0ED144
:1014E0000F4C241F2268236802F03F025B0207D5DD
:1014F0002068C0F38810A0FB010106E0084610BD7B
:101500002168C1F38811A1FB00010023FEF7B0FEA2
:101510002168C1F30141491C4900B0FBF1F010BD45
:10152000083802400024F40040787D012DE9F84F8E
:1015300004006ED02078DFF84C93C007A9F10405B1
:101540004AD009F104000168C1F38101012908D0E2
:101550000068C0F3810002280AD1D9F800004002D7
:1015600006D52868800337D560680028E1D033E0CD
:101570006068B0F5803F10D0B0F5A02F286810D07B
:1015800020F480302860286820F48020286060687B
:10159000A8B1FFF73FFE06460DE0286840F4803012
:1015A000F4E740F480202860F7E700BFFFF732FE41
:1015B000801B642873D828688003F7D50CE0FFF7F8
:1015C00029FE064605E000BFFFF724FE801B6428C5
:1015D000F0D828688003F7D42078DFF8AC82800741
:1015E0004FF0000A3ED5A748001D016811F00C0F0E
:1015F00008D00068C0F3810002280BD1D9F80000A0
:10160000400207D42868800716D5E068012800D179
:1016100012E033E1E068B8B10120C8F80000FFF73C
:10162000F9FD064605E000BFFFF7F4FD801B022828
:10163000C0D828688007F7D52868216920F0F8000D
:1016400040EAC10028600DE0C8F800A0FFF7E2FD05
:10165000064604E0FFF7DEFD801B02281FD828683D
:101660008007F7D42078000722D5864F8748616924
:10167000703771B101210160FFF7CCFD064604E02F
:10168000FFF7C8FD801B022809D838688007F7D506
:101690000EE0C0F800A0FFF7BDFD064605E082E0C1
:1016A000FFF7B8FD801B02287DD838688007F7D483
:1016B0002078400768D5DFF8CCB100270BF13C0B50
:1016C000DBF80000C0000BD4DBF8001041F08051C3
:1016D000CBF80010DBF80000012700F080500090EC
:1016E0006B4E3068C00510D4306840F480703060B4
:1016F000FFF790FD009005E0FFF78CFD0099401A80
:10170000022850D83068C005F6D55E4EA0686C3609
:1017100001280FD00528306810D020F0010030607B
:10172000306820F004003060A068B8B1FFF772FDA7
:1017300000900FE0306840F00100F4E740F0040052
:101740003060F7E7FFF766FD0099411A41F28830F3
:10175000814266D830688007F4D50EE0FFF75AFD65
:10176000009007E0FFF756FD0099411A41F28830DA
:10177000814256D830688007F4D42FB1DBF80010CE
:1017800021F08051CBF80010A069C8B33D49091D74
:101790000968C1F3810102294AD00228504607D0C6
:1017A000C8F8600000E03CE0FFF734FD04463BE091
:1017B0004746C8F86000FFF72DFD064605E000BF6C
:1017C000FFF728FD801B02282BD828688001F7D45A
:1017D000D4E907010843A16A2E4A490802EB0141F6
:1017E000626A41EA8211084394F82C1040EA0161D0
:1017F000C9F8001001203866FFF70CFD044606E02A
:101800003EE000BFFFF706FD001B022809D828684C
:101810008001F7D534E000BFFFF7FCFC001B022875
:1018200002D90320BDE8F88F28688001F4D427E0AE
:101830000128F7D0D9F80000E26900F48001914254
:101840001CD1226A00F03F01914217D147F6C071C6
:10185000626A0140B1EB821F10D1A26A4FF0FF33E0
:1018600000F4403103EB5202B1EB024F06D194F881
:101870002C1000F07060B0EB016F01D00120D1E7B7
:101880000020CFE70438024000004742800E474264
:10189000007000400000FFFF10B5401EB0F1807FD7
:1018A00001D3012010BD4FF0E02460610F216017CB
:1018B00001F027FA0020A06107202061002010BD60
:1018C0007047704710B590F83C20012A22D00122C1
:1018D00080F83C20CA688C6822F4407222434C682D
:1018E00022F4806222430C6822F4006222430C69D5
:1018F00022F4805222434C6922F400522243C969E7
:10190000002322F480420A4301684A6480F83C3094
:10191000002010BD022010BD70B590F83C20012AB7
:1019200032D0012480F83C40022280F83D20036838
:101930005A689D6822F070060A6832435A60134B59
:1019400002689A4214D0B2F1804F11D0104B9A42E3
:101950000ED0104B9A420BD00F4B9A4208D00F4B2F
:101960009A4205D00E4B9A4202D00E4B9A4204D1B5
:10197000496825F080031943916080F83D400021BB
:1019800080F83C10084670BD022070BD0000014088
:101990000004004000080040000C0040000401402A
:1019A000004001400018004010B5040003D094F836
:1019B0003D0010B107E0012010BD002084F83C007C
:1019C000204600F01FF8022084F83D00211D206809
:1019D00000F0BAFE012084F8460084F83E0084F846
:1019E0003F0084F8400084F8410084F8420084F805
:1019F000430084F8440084F8450084F83D0000204A
:101A000010BD000008B500681149884209D111488D
:101A1000016841F001010160006800F001000090E0
:101A200008BDB0F1804FFBD10A48001F016841F0AA
:101A3000010101600068002200F0010000901146E1
:101A40001C20FFF755FCBDE808401C20FFF742BCF6
:101A5000000001404438024090F83D10012901D0B7
:101A600001207047022180F83D100168CA6842F0E9
:101A70000102CA6000681149884214D0B0F1804F59
:101A800011D00F4988420ED00E4988420BD00E4922
:101A9000884208D00D49884205D00D49884202D0BD
:101AA0000C49884204D1816801F00701062903D05E
:101AB000016841F001010160002070470000014011
:101AC0000004004000080040000C004000040140F9
:101AD000004001400018004070B5044690F83C00FA
:101AE0000025012817D0012684F83C60022084F8E4
:101AF0003D002068826822F0770222F47F428260F3
:101B00000868502838D00DDC20284FD005DC90B371
:101B1000102811D14AE0022070BD302846D040285C
:101B20000AD13BE060282FD070280DD0B0F5805F3F
:101B300003D0B0F5005F12D0012584F83D6000208D
:101B400084F83C00284670BDCB68D1E901212068AB
:101B500000F06BFE2068816841F0770109E0CB68F6
:101B6000D1E90121206800F060FE2068816841F41D
:101B700080418160E1E719E0CA684968206800F0A7
:101B800029FF5021206806E0CA684968206800F0F3
:101B900032FF6021206800F052FECEE7CA68496833
:101BA000206800F017FF40212068F4E72268014612
:101BB0001046F0E7704770B50446006801694FF0C1
:101BC0000005C943890715D4C168C943890711D4E1
:101BD000E91E016101202077206880698007204686
:101BE00002D0FFF7E7FF04E000F0C2F8204600F063
:101BF00054F9257720680169C943490717D4C1689A
:101C0000C943490713D46FF0040101610220207712
:101C10002068806910F4407F204602D0FFF7CAFF99
:101C200004E000F0A5F8204600F037F92577206899
:101C30000169C943090716D4C168C943090712D409
:101C40006FF008010161042020772068C0698007D7
:101C5000204602D0FFF7AEFF04E000F089F82046EE
:101C600000F01BF9257720680169C943C90617D41C
:101C7000C168C943C90613D46FF01001016108207F
:101C800020772068C06910F4407F204602D0FFF71B
:101C900091FF04E000F06CF8204600F0FEF8257794
:101CA00020680169C943C90708D1C168C943C90788
:101CB00004D1891E0161204600F054F920680169B1
:101CC000C943090609D4C168C943090605D46FF0A0
:101CD000800101612046FFF7F3FD20680169C943D7
:101CE000490609D4C168C943490605D46FF04001CB
:101CF0000161204600F05EF920680169C943890648
:101D00000BD4C168C943890607D46FF02001016173
:101D10002046BDE87040FFF7D4BD70BD10B586B059
:101D2000044614216846FEF7BEFB0E49206888422F
:101D300016D10D480021026842F0100202600068CE
:101D400000F0100005904FF4007000900220CDE9E3
:101D500001010120CDE9031069460448FFF75CF951
:101D600006B010BD000001403038024000100240B3
:101D7000704770B5044690F83C0000260D460128D7
:101D80000FD0012084F83C006AB1042A1DD0082A33
:101D90002FD00C2A3FD00126002084F83C0030468A
:101DA00070BD022070BD206800F052FD206881697E
:101DB00041F0080181612068816921F0040181619D
:101DC000206881692A69114311E0206800F070FDE4
:101DD0002068816941F4006181612068816921F492
:101DE00080618161206881692A6941EA02218161FB
:101DF000D2E7206800F092FD2068C16941F0080137
:101E0000C1612068C16921F00401C1612068C16914
:101E10002A69114311E0206800F0B4FD2068C1690F
:101E200041F40061C1612068C16921F48061C16130
:101E30002068C1692A6941EA0221C161ACE710B595
:101E4000040003D094F83D0010B107E0012010BD5C
:101E5000002084F83C00204600F01EF8022084F8A0
:101E60003D00211D206800F06FFC012084F8460031
:101E700084F83E0084F83F0084F8400084F8410074
:101E800084F8420084F8430084F8440084F8450054
:101E900084F83D00002010BD7047704710B504461F
:101EA000022249B104290ED0082913D094F8410028
:101EB000012816D0012010BD94F83E000128F9D168
:101EC00084F83E200FE094F83F000128F2D184F816
:101ED0003F2008E094F840000128EBD184F840202E
:101EE00001E084F841200122206800F091FC1649AD
:101EF0002068164A884201D0904203D1436C43F4D3
:101F0000004343642068884213D0B0F1804F10D062
:101F10000F4988420DD00F4988420AD00E498842A5
:101F200007D0904205D00D49884202D00C49884222
:101F300004D1816801F00701062903D0016841F04E
:101F400001010160002010BD0000014000040140BB
:101F50000004004000080040000C00400040014028
:101F60000018004010B50E48FEF70CFD0D4C6080C7
:101F70000B484830FEF706FD83B2A38062880AA1B1
:101F80000B48FEF7EDF90A48FEF76EFA084982B2EF
:101F9000BDE810400F23A1F1440000F0E3B90000B8
:101FA0001800002000000020257520202025750045
:101FB0007C0100207047704770470000F8B5016849
:101FC00004460868CA684B6910F00F0F4FF000050F
:101FD00059D003F0010602F49077374365D0C1076A
:101FE00005D0D10503D5216C41F0010121644107E1
:101FF00005D5D90703D0216C41F002012164810786
:1020000005D5D90703D0216C41F0040121640107F3
:1020100007D502F02001314303D0216C41F00801C3
:102020002164216C00293AD0800604D5900602D59F
:10203000204600F021FD20684069216CC0F380102B
:10204000090700D460B3204600F0EFFC2068406927
:10205000400621D52068143050E8001F21F04001CF
:1020600040E80012002AF5D1A06BA8B16C490165C7
:10207000A06BFEF772FE002811D0A06B016D01B0BD
:10208000BDE8F040084783060FD593060DD52046DE
:10209000BDE8F84000F0F0BC2046FFF78DFFF8BD2A
:1020A0002046FFF789FF2564F8BD266B2023012E0B
:1020B00079D1C60677D5D60675D5086848680090E8
:1020C0004869400640D5A16B086840680004000CD0
:1020D000EAD0A28D8242E7D9E085C869B0F5807F59
:1020E0002DD020680C3050E8001F21F4807140E8AA
:1020F0000012002AF5D12068143050E8001F21F0AA
:10210000010140E80012002AF5D12068143050E89F
:10211000001F21F0400140E80012002AF5D184F8A8
:102120003E30256320680C3050E8001F21F010017C
:1021300040E80012002AF5D1A06BFEF7C5FDA08D86
:10214000E18D401A81B229E0A08DE18D401A81B263
:10215000E08D0028A8D00029A6D020680C3050E8D7
:10216000002F22F4907240E80026002EF5D120685E
:10217000143050E8002F22F0010240E80026002E23
:10218000F5D184F83E30256320680C3050E8002FEC
:1021900022F0100240E80023002BF5D12046FFF783
:1021A0000AFFF8BDFFE705062BD5150629D594F8DB
:1021B0003D002128F5D1A068B0F5805F01D12069EC
:1021C000B0B1206A411C2162216800784860E08C2F
:1021D000401E0004000CE084E3D12068C16821F0B7
:1021E0008001C1602068C16841F04001C160D8E74A
:1021F000206A0088C0F308004860206A801C2062C2
:10220000E5E74006CDD55006CBD5CA68204622F07A
:102210004002CA6084F83D3000F0FDF8C1E70000DC
:102220001B2A000870B5040004D094F83D00002576
:1022300010B106E0012070BD84F83C50204600F04B
:1022400023F8242084F83D002068C16821F400515F
:10225000C160204600F070FC2068016921F49041C3
:1022600001612068416921F02A0141612068C1684B
:1022700041F40051C1602564202084F83D0084F8B9
:102280003E00002070BD000070B586B006461421E7
:102290006846FEF708F92349306888423FD1224852
:1022A0000025016841F400310160006800F400304D
:1022B00005901D481038016841F001010160006877
:1022C000694600F0010005900C2000900220CDE945
:1022D000010503200390072004901448FEF79CFE9C
:1022E000144C134820604FF00060C4E9010540140D
:1022F000C4E903506561A561E56125622046656218
:10230000FEF70EFE08B1FEF792FAB4630022114602
:102310002620A663FEF7ECFF2620FEF7DBFF06B0C3
:1023200070BD000000440040403802400000024000
:10233000886002408C01002090F83E30202B0ED1A6
:1023400059B152B190F83C30012B08D0012380F8EC
:102350003C300023036300F075BC0120704702206D
:10236000704770472DE9F843044690F83D001F463A
:1023700016460D4620284CD1C5B1BEB194F83C009C
:10238000012846D0012084F83C004FF00008C4F832
:102390004080212084F83D00FEF73CFFA684814662
:1023A000E684A068B0F5805F03D004E00120BDE8BA
:1023B000F883206928B12E465FF0000584F83C8040
:1023C0000EE00026FAE78021204600F056FCA0B976
:1023D000AEB116F8010B21684860E08C401EE08425
:1023E000E08C4B464FF0000200970028EBD14FF0F5
:1023F0004001204600F041FC30B10320D7E735F81A
:10240000020BC0F30800E6E7202084F83D0000201E
:10241000CDE70220CBE77047FEE700007FB5002440
:10242000154800940194029412490394C0E90014E1
:1024300084600461047680F820404FF08051C162CE
:102440000125C5614FF0C061C460816280F83040F1
:102450004561FEF738FB08B172B6FEE7CDE90045ED
:10246000694605480294FEF7E5F9002801D072B6E6
:10247000FEE77FBD00200140180000207FB500244A
:10248000154800940194029412490394C0E9001481
:1024900084600461047680F820400905C16201254A
:1024A000C5614FF0C061C460816280F83040456111
:1024B000FEF709FB08B172B6FEE70095CDE90154BD
:1024C00069460548FEF7B6F9002801D072B6FEE766
:1024D0007FBD0000002101406000002070B586B083
:1024E00014216846FDF7DFFF1A480024016841F017
:1024F00080010160016801F080010591016841F0EF
:1025000001010160016801F001010591016841F0DC
:1025100010010160016801F010010591016841F0AE
:102520000201016000680C4E00F002004FF40055FB
:102530000590002229463046FEF766FE01200095F0
:10254000CDE90104694630460394FEF765FD06B007
:1025500070BD0000303802400004024010B596B053
:1025600000240F9410941194129413941C2108A821
:102570001494FDF798FF20216846FDF794FF284842
:10258000264901604821C0E9011440F6C411C0E9A0
:10259000031444618461FFF707FA08B172B6FEE7DD
:1025A0004FF480500F900FA91D48FFF795FA08B11E
:1025B00072B6FEE71A48FFF742FC08B172B6FEE7B2
:1025C000139413A916481494FFF7A6F908B172B62C
:1025D000FEE76020CDE908040A940B940C940D9456
:1025E000002208A90E480E94FFF7C3FB08B172B68B
:1025F000FEE700944FF40050CDE9044002940194AA
:102600000394694606480794FFF75CF908B172B66F
:10261000FEE70348FFF782FB16B010BD0000014043
:10262000A800002010B586B000241848009401943A
:102630000294039404944FF08041059401604FF498
:102640007A71C0E901144FF4B471C0E90314802118
:102650008161FFF7A9F908B172B6FEE74FF4805027
:10266000009069460948FFF737FA08B172B6FEE7ED
:102670002020CDE9040404A90448FFF74DF90028FF
:1026800001D072B6FEE706B010BD0000F0000020D9
:10269000FEE7FEE770477047FEF7C2BD30B593B066
:1026A00030216846FDF7FFFE14210CA8FDF7FBFE64
:1026B0001C480024016841F080510160006800F06E
:1026C000805011901848016841F480410160006811
:1026D000022500F480401190012003901020049006
:1026E000009506950820CDE907404820CDE9090569
:1026F00004200B906846FEF719FF08B172B6FEE79A
:102700000F20CDE90C054FF48050CDE90E40022199
:102710000CA81094FEF71EFE002801D072B6FEE74A
:1027200013B030BD403802400070004002480168DC
:1027300041F470010160704788ED00E00148FFF747
:102740003ABA0000F0000020F0B50268254C264D92
:10275000264E274F274B4FF0804CA04209D06045B2
:1027600007D0A84205D0B04203D0B84201D0984269
:1027700004D122F0700E4A6842EA0E02A0421BD039
:10278000604519D0A84217D0B04215D0B84213D036
:10279000984211D0184DA8420ED0184DA8420BD027
:1027A000174DA84208D0174DA84205D0164DA84293
:1027B00002D0164DA84203D122F44075CA682A43BC
:1027C0004D6922F080022A4302608A68C2620A6868
:1027D0008262A04201D0984201D1096901630121BE
:1027E0004161F0BD000001400004004000080040CD
:1027F000000C004000040140004001400044014042
:102800000048014000180040001C0040002000402B
:1028100010B501F01F030121046A99408C43046242
:10282000016A9A401143016210BD10B5846842EA02
:10283000032224F47F440A432243826010BD82684D
:1028400022F070020A4342F00701816070470000E5
:10285000F0B5026A22F001020262036A42688469EA
:10286000124E24F073050C682C4323F002058B688C
:102870002B430D4DA84201D0B04205D123F00807EB
:10288000CB683B4323F00403A84201D0B04205D1FA
:102890004D6922F4407215438A692A43426084617B
:1028A000496841630362F0BD00000140000401403B
:1028B000F0B5026A22F010020262026A436884697B
:1028C0000D6824F4E64444EA05248D6822F02002D1
:1028D00042EA05120F4D104EA84201D0B04206D177
:1028E000CF6822F0800242EA071222F04002A8429A
:1028F00001D0B04207D14D6923F4406343EA850318
:102900008D6943EA8503436084614968816302629B
:10291000F0BD00000000014000040140F0B5026A73
:1029200022F480720262026A4368C46922F400726F
:1029300024F073050C68124E2C438D6842EA052280
:102940000E4DA84201D0B04206D1CF6822F40062F9
:1029500042EA072222F48062A84201D0B04207D1A5
:102960004D6923F4405343EA05138D6943EA051387
:102970004360C4614968C1630262F0BD0000014068
:102980000004014030B5026A22F480520262046AF7
:102990004268C3690D6823F4E64343EA05238D6862
:1029A00024F4005444EA0534084DA84202D0084DEE
:1029B000A84204D14D6922F4804242EA8512426065
:1029C000C36149680164046230BD00000000014039
:1029D0000004014010B5036A046A24F00104046293
:1029E000846924F0F00444EA021423F00A020A4342
:1029F0008461026210BD10B5036A23F01003036204
:102A00008369046A23F4704343EA023224F0A0038A
:102A100043EA01118261016210BD10B5806B002193
:102A2000C185C184FFF7C8FA10BD01680C3151E8B7
:102A3000002F22F4907241E80023002BF5D10168A9
:102A4000143151E8002F22F0010241E80023002B4D
:102A5000F5D1016B012909D101680C3151E8002F32
:102A600022F0100241E80023002BF5D1202180F84C
:102A70003E1000210163704708B590F83E102229EE
:102A800001D0022008BD82684FF480539A4201D1E0
:102A9000016921B1816A9A421BD04AB10AE00268F9
:102AA000816A5268C2F308020A80816A891C08E0C0
:102AB000026972B10268526802F07F020A70816A8C
:102AC000491C8162C18D491E0904090CC18503D0CE
:102AD00019E002685268F1E70168CA6822F0200232
:102AE000CA600168CA6822F48072CA6001684A69D3
:102AF00022F001024A61202180F83E10016B012979
:102B000003D0FFF72EFC002008BD002101630168FF
:102B10000C3151E8002F22F0100241E80023002B75
:102B2000F5D101680A68D20602D50A6849680091A1
:102B3000818DFFF740FAE6E770B504460068016949
:102B4000E26821F44051114301612169A068E26902
:102B500008436169114308432168CA6849F20C635C
:102B60009A430243CA6020684169A26921F4407116
:102B70001143416131492068884202D0304988427E
:102B800002D1FEF791FC01E0FEF77EFCE269002332
:102B9000192164253226B2F5004F626828D0A0FBC7
:102BA0000101930F9200FDF763FB0146B0FBF5F0C6
:102BB0006FF01802504301EB800006EB0010B0FBF1
:102BC000F5F000F0F002B1FBF5F002EB0012B1FB02
:102BD000F5F06FF01803584301EB800006EB00108E
:102BE000B0FBF5F000F00F0021681044886070BD64
:102BF000A0FB010192185B41FDF73AFB0146B0FBD7
:102C0000F5F00201B1FBF5F06FF01803584301EB4A
:102C1000800006EBC000B0FBF5F000F0F80002EB1E
:102C20004002B1FBF5F0584301EB800006EBC00019
:102C3000B0FBF5F000F00700D6E7000000100140FF
:102C40000014014081628285C28500210164222234
:102C500080F83E2080F83C100168CA6842F4807217
:102C6000CA6001684A6942F001024A610068C168AD
:102C700041F02001C160002070472DE9F0419846E5
:102C800017460E460446069D27E0681C25D02DB148
:102C9000FEF7C0FAA0EB0800A8421ED920680C304D
:102CA00050E8001F21F4D07140E80012002AF5D14D
:102CB0002068143050E8001F21F0010140E80012A4
:102CC000002AF5D1202084F83D0084F83E00002041
:102CD00084F83C000320BDE8F0812068006836EAF3
:102CE000000004D00020B842CFD00020F3E701203C
:102CF000F9E700000148FFF761B900003801002042
:102D0000FEE70907090E002804DB00F1E02080F847
:102D10000014704700F00F0000F1E02080F8141D4F
:102D20007047000008B5FEF783FAFFF7B7FCFFF71E
:102D3000D5FBFFF773FB31480024016841F4001113
:102D400001600068224600F4001000902146102027
:102D5000FEF7CEFA1020FEF7BDFA2A482849016096
:102D60004FF4E131C0E901140C21C460C0E9044111
:102D70008461C461FFF756FA08B172B6FEE7FFF747
:102D800051FCFFF77BFBFFF7E9FB1E484838FEF7D5
:102D900063FE1D48FDF712FF1B484830FDF70EFF8C
:102DA00001221A491748FFF7C7FA16480021903840
:102DB000FFF774F8134D154F40F2465640F2E248C3
:102DC000903D40F2EE293878412804D0422805D0C1
:102DD000432805D007E02868466304E0404600E049
:102DE000484629684863012208490648FFF7A4FAC3
:102DF0003C700520FEF7FEF8E5E7000030380240A1
:102E0000004400403801002018000020000000208D
:102E10004FF04070E1EE100A7047000610160006F1
:102E20001016000000000000000001020304060765
:102E30000809000000000102030400005C2E0008E5
:102E40000000002018000000C4010008742E0008D3
:102E50001800002038080000E00100080000000011
:102E60000000000001000000100000000000000051
:042E70000024F40046
:040000050800018965
:00000001FF
